{
  "contractName": "FoodSupplyChain",
  "abi": [
    {
      "anonymous": false,
      "inputs": [
        {
          "indexed": false,
          "internalType": "uint256",
          "name": "id",
          "type": "uint256"
        },
        {
          "indexed": false,
          "internalType": "string",
          "name": "name",
          "type": "string"
        },
        {
          "indexed": false,
          "internalType": "string",
          "name": "origin",
          "type": "string"
        },
        {
          "indexed": true,
          "internalType": "address",
          "name": "creator",
          "type": "address"
        }
      ],
      "name": "BatchCreated",
      "type": "event"
    },
    {
      "anonymous": false,
      "inputs": [
        {
          "indexed": false,
          "internalType": "uint256",
          "name": "id",
          "type": "uint256"
        },
        {
          "indexed": false,
          "internalType": "bool",
          "name": "conditionOk",
          "type": "bool"
        }
      ],
      "name": "ConditionUpdated",
      "type": "event"
    },
    {
      "anonymous": false,
      "inputs": [
        {
          "indexed": false,
          "internalType": "uint256",
          "name": "id",
          "type": "uint256"
        },
        {
          "indexed": false,
          "internalType": "enum FoodSupplyChain.Stage",
          "name": "newStage",
          "type": "uint8"
        },
        {
          "indexed": true,
          "internalType": "address",
          "name": "holder",
          "type": "address"
        }
      ],
      "name": "StageUpdated",
      "type": "event"
    },
    {
      "constant": true,
      "inputs": [],
      "name": "batchCount",
      "outputs": [
        {
          "internalType": "uint256",
          "name": "",
          "type": "uint256"
        }
      ],
      "payable": false,
      "stateMutability": "view",
      "type": "function"
    },
    {
      "constant": true,
      "inputs": [
        {
          "internalType": "uint256",
          "name": "",
          "type": "uint256"
        }
      ],
      "name": "batches",
      "outputs": [
        {
          "internalType": "uint256",
          "name": "id",
          "type": "uint256"
        },
        {
          "internalType": "string",
          "name": "name",
          "type": "string"
        },
        {
          "internalType": "string",
          "name": "origin",
          "type": "string"
        },
        {
          "internalType": "enum FoodSupplyChain.Stage",
          "name": "stage",
          "type": "uint8"
        },
        {
          "internalType": "address",
          "name": "currentHolder",
          "type": "address"
        },
        {
          "internalType": "uint256",
          "name": "expiryDate",
          "type": "uint256"
        },
        {
          "internalType": "bool",
          "name": "conditionOk",
          "type": "bool"
        }
      ],
      "payable": false,
      "stateMutability": "view",
      "type": "function"
    },
    {
      "constant": false,
      "inputs": [
        {
          "internalType": "string",
          "name": "_name",
          "type": "string"
        },
        {
          "internalType": "string",
          "name": "_origin",
          "type": "string"
        },
        {
          "internalType": "uint256",
          "name": "_expiryDate",
          "type": "uint256"
        }
      ],
      "name": "createBatch",
      "outputs": [],
      "payable": false,
      "stateMutability": "nonpayable",
      "type": "function"
    },
    {
      "constant": false,
      "inputs": [
        {
          "internalType": "uint256",
          "name": "_id",
          "type": "uint256"
        },
        {
          "internalType": "address",
          "name": "_newHolder",
          "type": "address"
        }
      ],
      "name": "advanceStage",
      "outputs": [],
      "payable": false,
      "stateMutability": "nonpayable",
      "type": "function"
    },
    {
      "constant": false,
      "inputs": [
        {
          "internalType": "uint256",
          "name": "_id",
          "type": "uint256"
        },
        {
          "internalType": "bool",
          "name": "_ok",
          "type": "bool"
        }
      ],
      "name": "updateCondition",
      "outputs": [],
      "payable": false,
      "stateMutability": "nonpayable",
      "type": "function"
    },
    {
      "constant": true,
      "inputs": [
        {
          "internalType": "uint256",
          "name": "_id",
          "type": "uint256"
        }
      ],
      "name": "getBatch",
      "outputs": [
        {
          "internalType": "uint256",
          "name": "id",
          "type": "uint256"
        },
        {
          "internalType": "string",
          "name": "name",
          "type": "string"
        },
        {
          "internalType": "string",
          "name": "origin",
          "type": "string"
        },
        {
          "internalType": "enum FoodSupplyChain.Stage",
          "name": "stage",
          "type": "uint8"
        },
        {
          "internalType": "address",
          "name": "holder",
          "type": "address"
        },
        {
          "internalType": "uint256",
          "name": "expiryDate",
          "type": "uint256"
        },
        {
          "internalType": "bool",
          "name": "conditionOk",
          "type": "bool"
        }
      ],
      "payable": false,
      "stateMutability": "view",
      "type": "function"
    }
  ],
  "bytecode": "0x608060405234801561001057600080fd5b50610bc9806100206000396000f3fe608060405234801561001057600080fd5b50600436106100625760003560e01c806306f13056146100675780635ac442821461008157806372ac1025146101c357806387ea2915146101ea578063b32c4d8d146102ac578063fd30b61d146102c9575b600080fd5b61006f6102f5565b60408051918252519081900360200190f35b61009e6004803603602081101561009757600080fd5b50356102fb565b6040518088815260200180602001806020018760048111156100bc57fe5b60ff168152602001866001600160a01b03166001600160a01b0316815260200185815260200184151515158152602001838103835289818151815260200191508051906020019080838360005b83811015610121578181015183820152602001610109565b50505050905090810190601f16801561014e5780820380516001836020036101000a031916815260200191505b5083810382528851815288516020918201918a019080838360005b83811015610181578181015183820152602001610169565b50505050905090810190601f1680156101ae5780820380516001836020036101000a031916815260200191505b50995050505050505050505060405180910390f35b6101e8600480360360408110156101d957600080fd5b508035906020013515156104e9565b005b6101e86004803603606081101561020057600080fd5b81019060208101813564010000000081111561021b57600080fd5b82018360208201111561022d57600080fd5b8035906020019184600183028401116401000000008311171561024f57600080fd5b91939092909160208101903564010000000081111561026d57600080fd5b82018360208201111561027f57600080fd5b803590602001918460018302840111640100000000831117156102a157600080fd5b9193509150356105b6565b61009e600480360360208110156102c257600080fd5b50356107bc565b6101e8600480360360408110156102df57600080fd5b50803590602001356001600160a01b031661091d565b60005481565b600060608060008060008061030e610ab1565b600089815260016020818152604092839020835160e0810185528154815281840180548651600296821615610100026000190190911695909504601f810185900485028601850190965285855290949193858401939092908301828280156103b75780601f1061038c576101008083540402835291602001916103b7565b820191906000526020600020905b81548152906001019060200180831161039a57829003601f168201915b5050509183525050600282810180546040805160206001841615610100026000190190931694909404601f810183900483028501830190915280845293810193908301828280156104495780601f1061041e57610100808354040283529160200191610449565b820191906000526020600020905b81548152906001019060200180831161042c57829003601f168201915b5050509183525050600382015460209091019060ff16600481111561046a57fe5b600481111561047557fe5b8152600382015461010090046001600160a01b0316602080830191909152600483015460408084019190915260059093015460ff1615156060928301528351908401519284015191840151608085015160a086015160c090960151929f949e50929c509a5090985091965090945092505050565b600082815260016020526040902060030154829061010090046001600160a01b03163314610557576040805162461bcd60e51b81526020600482015260166024820152752737ba103a34329031bab93932b73a103437b63232b960511b604482015290519081900360640190fd5b600083815260016020908152604091829020600501805460ff191685151590811790915582518681529182015281517fd65b27ba2911fcbdf7a7f729333d39269502e6afd9c5ae60a98bf87d0be3b675929181900390910190a1505050565b60008054600101908190556040805160e08101825291825280516020601f8801819004810282018101909252868152818301918890889081908401838280828437600092019190915250505090825250604080516020601f87018190048102820181019092528581529181019190869086908190840183828082843760009201829052509385525050602090920191508152336020808301919091526040808301859052600160609093018390526000805481528383522083518155838201518051919361068a9390850192910190610af9565b50604082015180516106a6916002840191602090910190610af9565b50606082015160038201805460ff191660018360048111156106c457fe5b0217905550608082810151600383018054610100600160a81b0319166101006001600160a01b039093169290920291909117905560a0830151600483015560c0909201516005909101805460ff19169115159190911790556000546040805182815260606020820181815290820189905233947f5332f073d755f0f24af075eecaaafa79a4bc04c2bb93b0c3b0e6b841a8542dc294938b938b938b938b938301908301878780828437600083820152601f01601f191690910184810383528581526020019050858580828437600083820152604051601f909101601f1916909201829003995090975050505050505050a25050505050565b600160208181526000928352604092839020805481840180548651600296821615610100026000190190911695909504601f810185900485028601850190965285855290949193929091908301828280156108585780601f1061082d57610100808354040283529160200191610858565b820191906000526020600020905b81548152906001019060200180831161083b57829003601f168201915b50505060028085018054604080516020601f60001961010060018716150201909416959095049283018590048502810185019091528181529596959450909250908301828280156108ea5780601f106108bf576101008083540402835291602001916108ea565b820191906000526020600020905b8154815290600101906020018083116108cd57829003601f168201915b5050505060038301546004840154600590940154929360ff808316946101009093046001600160a01b0316935090911687565b600082815260016020526040902060030154829061010090046001600160a01b0316331461098b576040805162461bcd60e51b81526020600482015260166024820152752737ba103a34329031bab93932b73a103437b63232b960511b604482015290519081900360640190fd5b60008381526001602052604090206004600382015460ff1660048111156109ae57fe5b14156109f0576040805162461bcd60e51b815260206004820152600c60248201526b105b1c9958591e481cdbdb1960a21b604482015290519081900360640190fd5b600381015460ff166004811115610a0357fe5b6001016004811115610a1157fe5b60038201805460ff19166001836004811115610a2957fe5b0217905550600381018054610100600160a81b0319166101006001600160a01b038616908102919091179182905560405186815290917f20f13d5051a99e5a3e1fe067b2dad576cc3253d70a33e0c746becebd65d4baa491879160ff169060208101826004811115610a9757fe5b60ff1681526020019250505060405180910390a250505050565b6040518060e0016040528060008152602001606081526020016060815260200160006004811115610ade57fe5b81526000602082018190526040820181905260609091015290565b828054600181600116156101000203166002900490600052602060002090601f016020900481019282601f10610b3a57805160ff1916838001178555610b67565b82800160010185558215610b67579182015b82811115610b67578251825591602001919060010190610b4c565b50610b73929150610b77565b5090565b610b9191905b80821115610b735760008155600101610b7d565b9056fea265627a7a72315820a7d59510572dc615bdd8e9de3383e2adeea2cc2003e3b47dd24814f7438bd16a64736f6c63430005100032",
  "source": "// SPDX-License-Identifier: MIT\npragma solidity ^0.5.16;\n\n/**\n * @title FoodSupplyChain\n * @notice A simple supply chain tracking system for study/demo purposes\n */\ncontract FoodSupplyChain {\n    enum Stage {\n        Created,\n        Transported,\n        Warehoused,\n        Store,\n        Sold\n    }\n\n    struct Batch {\n        // a batch of food item includes name, origin, stage, current holder, expiry date, and condition\n        uint id; // id of the batch\n        string name;\n        string origin; // origin of the batch\n        Stage stage; // stage of the batch (Created, Transported, Warehoused, Store, Sold)\n        address currentHolder; // current holder of the batch\n        uint expiryDate; // expiry date of the batch\n        bool conditionOk; // condition of the batch (true if the batch is ok, false if the batch is not ok)\n    }\n\n    uint public batchCount; // count of the batches this is set to public so that it can be accessed by the frontend\n    mapping(uint => Batch) public batches; // mapping of the batches this is set to public so that it can be accessed by the frontend\n\n    event BatchCreated(\n        uint id,\n        string name,\n        string origin,\n        address indexed creator\n    ); // event for the creation of a new batch\n    event StageUpdated(uint id, Stage newStage, address indexed holder); // event for the update of the stage of a batch\n    event ConditionUpdated(uint id, bool conditionOk); // event for the update of the condition of a batch\n\n    modifier onlyHolder(uint _id) {\n        // modifier for the only holder of a batch\n        require(\n            msg.sender == batches[_id].currentHolder,\n            \"Not the current holder\"\n        );\n        _;\n    }\n\n    /// Create a new food batch\n    function createBatch(\n        string calldata _name, // name of the food batch\n        string calldata _origin, // origin of the food batch\n        uint _expiryDate // expiry date of the food batch\n    ) external {\n        // function to create a new food batch\n        batchCount++;\n        batches[batchCount] = Batch(\n            batchCount, // id of the batch\n            _name,\n            _origin,\n            Stage.Created, // stage of the batch\n            msg.sender, // current holder of the batch\n            _expiryDate, // expiry date of the batch\n            true // condition of the batch\n        );\n        emit BatchCreated(batchCount, _name, _origin, msg.sender);\n    }\n\n    /// Move batch to next stage\n    function advanceStage(\n        uint _id,\n        address _newHolder\n    ) external onlyHolder(_id) {\n        // function to move the batch to the next stage\n        Batch storage b = batches[_id]; // storage of the batch\n        require(b.stage != Stage.Sold, \"Already sold\"); // require the batch to not be sold for moving to the next stage\n        b.stage = Stage(uint(b.stage) + 1); // move the batch to the next stage\n        b.currentHolder = _newHolder; // update the current holder of the batch\n        emit StageUpdated(_id, b.stage, _newHolder); // emit the event for the update of the stage of the batch\n    }\n\n    /// Update condition status (temperature/quality)\n    function updateCondition(uint _id, bool _ok) external onlyHolder(_id) {\n        // function to update the condition of a batch\n        batches[_id].conditionOk = _ok; // update the condition of the batch\n        emit ConditionUpdated(_id, _ok); // emit the event for the update of the condition of the batch\n    }\n\n    /// Get details (helper for frontend)\n    function getBatch(\n        uint _id\n    )\n        external\n        view\n        returns (\n            uint id, // id of the batch\n            string memory name, // name of the batch\n            string memory origin,\n            Stage stage, // stage of the batch\n            address holder, // current holder of the batch\n            uint expiryDate, // expiry date of the batch\n            bool conditionOk // condition of the batch\n        )\n    {\n        Batch memory b = batches[_id]; // memory of the batch\n        return (\n            b.id,\n            b.name,\n            b.origin,\n            b.stage,\n            b.currentHolder,\n            b.expiryDate,\n            b.conditionOk\n        ); // return the details of the batch\n    }\n}\n",
  "sourcePath": "/Users/trucpham/Desktop/Deakin 2025/Term 2/Blockchain technologies/10.2HD/contracts/FoodSupplyChain.sol",
  "compiler": {
    "name": "solc",
    "version": "0.5.16+commit.9c3226ce.Emscripten.clang"
  },
  "schemaVersion": "3.4.16",
  "updatedAt": "2025-09-19T03:38:53.650Z",
  "networkType": "ethereum",
  "devdoc": {
    "methods": {},
    "title": "FoodSupplyChain"
  },
  "userdoc": {
    "methods": {
      "advanceStage(uint256,address)": {
        "notice": "Move batch to next stage"
      },
      "createBatch(string,string,uint256)": {
        "notice": "Create a new food batch"
      },
      "getBatch(uint256)": {
        "notice": "Get details (helper for frontend)"
      },
      "updateCondition(uint256,bool)": {
        "notice": "Update condition status (temperature/quality)"
      }
    },
    "notice": "A simple supply chain tracking system for study/demo purposes"
  }
}