{
  "contractName": "FoodSupplyChain",
  "abi": [
    {
      "anonymous": false,
      "inputs": [
        {
          "indexed": false,
          "internalType": "uint256",
          "name": "id",
          "type": "uint256"
        },
        {
          "indexed": false,
          "internalType": "string",
          "name": "name",
          "type": "string"
        },
        {
          "indexed": false,
          "internalType": "string",
          "name": "origin",
          "type": "string"
        },
        {
          "indexed": true,
          "internalType": "address",
          "name": "creator",
          "type": "address"
        }
      ],
      "name": "BatchCreated",
      "type": "event"
    },
    {
      "anonymous": false,
      "inputs": [
        {
          "indexed": false,
          "internalType": "uint256",
          "name": "id",
          "type": "uint256"
        },
        {
          "indexed": true,
          "internalType": "address",
          "name": "store",
          "type": "address"
        }
      ],
      "name": "BatchSold",
      "type": "event"
    },
    {
      "anonymous": false,
      "inputs": [
        {
          "indexed": false,
          "internalType": "uint256",
          "name": "id",
          "type": "uint256"
        },
        {
          "indexed": false,
          "internalType": "bool",
          "name": "conditionOk",
          "type": "bool"
        }
      ],
      "name": "ConditionUpdated",
      "type": "event"
    },
    {
      "anonymous": false,
      "inputs": [
        {
          "indexed": false,
          "internalType": "uint256",
          "name": "id",
          "type": "uint256"
        },
        {
          "indexed": false,
          "internalType": "enum FoodSupplyChain.Stage",
          "name": "newStage",
          "type": "uint8"
        },
        {
          "indexed": true,
          "internalType": "address",
          "name": "holder",
          "type": "address"
        }
      ],
      "name": "StageUpdated",
      "type": "event"
    },
    {
      "anonymous": false,
      "inputs": [
        {
          "indexed": true,
          "internalType": "address",
          "name": "store",
          "type": "address"
        }
      ],
      "name": "StoreAuthorized",
      "type": "event"
    },
    {
      "anonymous": false,
      "inputs": [
        {
          "indexed": true,
          "internalType": "address",
          "name": "warehouse",
          "type": "address"
        }
      ],
      "name": "WarehouseAuthorized",
      "type": "event"
    },
    {
      "constant": true,
      "inputs": [],
      "name": "batchCount",
      "outputs": [
        {
          "internalType": "uint256",
          "name": "",
          "type": "uint256"
        }
      ],
      "payable": false,
      "stateMutability": "view",
      "type": "function"
    },
    {
      "constant": true,
      "inputs": [
        {
          "internalType": "uint256",
          "name": "",
          "type": "uint256"
        }
      ],
      "name": "batches",
      "outputs": [
        {
          "internalType": "uint256",
          "name": "id",
          "type": "uint256"
        },
        {
          "internalType": "string",
          "name": "name",
          "type": "string"
        },
        {
          "internalType": "string",
          "name": "origin",
          "type": "string"
        },
        {
          "internalType": "enum FoodSupplyChain.Stage",
          "name": "stage",
          "type": "uint8"
        },
        {
          "internalType": "address",
          "name": "currentHolder",
          "type": "address"
        },
        {
          "internalType": "uint256",
          "name": "expiryDate",
          "type": "uint256"
        },
        {
          "internalType": "bool",
          "name": "conditionOk",
          "type": "bool"
        },
        {
          "internalType": "uint256",
          "name": "batchSize",
          "type": "uint256"
        },
        {
          "internalType": "address",
          "name": "creator",
          "type": "address"
        }
      ],
      "payable": false,
      "stateMutability": "view",
      "type": "function"
    },
    {
      "constant": true,
      "inputs": [
        {
          "internalType": "address",
          "name": "",
          "type": "address"
        }
      ],
      "name": "stores",
      "outputs": [
        {
          "internalType": "bool",
          "name": "",
          "type": "bool"
        }
      ],
      "payable": false,
      "stateMutability": "view",
      "type": "function"
    },
    {
      "constant": true,
      "inputs": [
        {
          "internalType": "address",
          "name": "",
          "type": "address"
        }
      ],
      "name": "warehouses",
      "outputs": [
        {
          "internalType": "bool",
          "name": "",
          "type": "bool"
        }
      ],
      "payable": false,
      "stateMutability": "view",
      "type": "function"
    },
    {
      "constant": false,
      "inputs": [
        {
          "internalType": "string",
          "name": "_name",
          "type": "string"
        },
        {
          "internalType": "string",
          "name": "_origin",
          "type": "string"
        },
        {
          "internalType": "uint256",
          "name": "_expiryDate",
          "type": "uint256"
        },
        {
          "internalType": "uint256",
          "name": "_batchSize",
          "type": "uint256"
        }
      ],
      "name": "createBatch",
      "outputs": [],
      "payable": false,
      "stateMutability": "nonpayable",
      "type": "function"
    },
    {
      "constant": false,
      "inputs": [
        {
          "internalType": "uint256",
          "name": "_id",
          "type": "uint256"
        },
        {
          "internalType": "address",
          "name": "_newHolder",
          "type": "address"
        }
      ],
      "name": "advanceStage",
      "outputs": [],
      "payable": false,
      "stateMutability": "nonpayable",
      "type": "function"
    },
    {
      "constant": false,
      "inputs": [
        {
          "internalType": "uint256",
          "name": "_id",
          "type": "uint256"
        },
        {
          "internalType": "bool",
          "name": "_ok",
          "type": "bool"
        }
      ],
      "name": "updateCondition",
      "outputs": [],
      "payable": false,
      "stateMutability": "nonpayable",
      "type": "function"
    },
    {
      "constant": true,
      "inputs": [
        {
          "internalType": "uint256",
          "name": "_id",
          "type": "uint256"
        }
      ],
      "name": "getBatch",
      "outputs": [
        {
          "internalType": "uint256",
          "name": "id",
          "type": "uint256"
        },
        {
          "internalType": "string",
          "name": "name",
          "type": "string"
        },
        {
          "internalType": "string",
          "name": "origin",
          "type": "string"
        },
        {
          "internalType": "enum FoodSupplyChain.Stage",
          "name": "stage",
          "type": "uint8"
        },
        {
          "internalType": "address",
          "name": "holder",
          "type": "address"
        },
        {
          "internalType": "uint256",
          "name": "expiryDate",
          "type": "uint256"
        },
        {
          "internalType": "bool",
          "name": "conditionOk",
          "type": "bool"
        },
        {
          "internalType": "uint256",
          "name": "batchSize",
          "type": "uint256"
        },
        {
          "internalType": "address",
          "name": "creator",
          "type": "address"
        }
      ],
      "payable": false,
      "stateMutability": "view",
      "type": "function"
    },
    {
      "constant": false,
      "inputs": [
        {
          "internalType": "address",
          "name": "_warehouse",
          "type": "address"
        }
      ],
      "name": "authorizeWarehouse",
      "outputs": [],
      "payable": false,
      "stateMutability": "nonpayable",
      "type": "function"
    },
    {
      "constant": false,
      "inputs": [
        {
          "internalType": "address",
          "name": "_store",
          "type": "address"
        }
      ],
      "name": "authorizeStore",
      "outputs": [],
      "payable": false,
      "stateMutability": "nonpayable",
      "type": "function"
    },
    {
      "constant": false,
      "inputs": [
        {
          "internalType": "uint256",
          "name": "_id",
          "type": "uint256"
        }
      ],
      "name": "markAsSold",
      "outputs": [],
      "payable": false,
      "stateMutability": "nonpayable",
      "type": "function"
    }
  ],
  "bytecode": "0x608060405234801561001057600080fd5b506110fc806100206000396000f3fe608060405234801561001057600080fd5b50600436106100a95760003560e01c80636423867b116100715780636423867b146102a957806372ac1025146103715780638805bdf714610396578063b32c4d8d146103bc578063b489b365146103d9578063fd30b61d146103ff576100a9565b806306f13056146100ae5780631eb97cc8146100c85780632931a108146100f05780635ac442821461010d578063621df5341461026f575b600080fd5b6100b661042b565b60408051918252519081900360200190f35b6100ee600480360360208110156100de57600080fd5b50356001600160a01b0316610431565b005b6100ee6004803603602081101561010657600080fd5b503561047d565b61012a6004803603602081101561012357600080fd5b5035610619565b604051808a8152602001806020018060200189600481111561014857fe5b60ff168152602001886001600160a01b03166001600160a01b0316815260200187815260200186151515158152602001858152602001846001600160a01b03166001600160a01b0316815260200183810383528b818151815260200191508051906020019080838360005b838110156101cb5781810151838201526020016101b3565b50505050905090810190601f1680156101f85780820380516001836020036101000a031916815260200191505b5083810382528a5181528a516020918201918c019080838360005b8381101561022b578181015183820152602001610213565b50505050905090810190601f1680156102585780820380516001836020036101000a031916815260200191505b509b50505050505050505050505060405180910390f35b6102956004803603602081101561028557600080fd5b50356001600160a01b031661087e565b604080519115158252519081900360200190f35b6100ee600480360360808110156102bf57600080fd5b8101906020810181356401000000008111156102da57600080fd5b8201836020820111156102ec57600080fd5b8035906020019184600183028401116401000000008311171561030e57600080fd5b91939092909160208101903564010000000081111561032c57600080fd5b82018360208201111561033e57600080fd5b8035906020019184600183028401116401000000008311171561036057600080fd5b919350915080359060200135610893565b6100ee6004803603604081101561038757600080fd5b50803590602001351515610acf565b610295600480360360208110156103ac57600080fd5b50356001600160a01b0316610b9c565b61012a600480360360208110156103d257600080fd5b5035610bb1565b6100ee600480360360208110156103ef57600080fd5b50356001600160a01b0316610d22565b6100ee6004803603604081101561041557600080fd5b50803590602001356001600160a01b0316610d6e565b60005481565b6001600160a01b038116600081815260026020526040808220805460ff19166001179055517f73d6e4d85cb0eefcd10ec9128c1fd03a93a221555a6023325f7879ef94ad28549190a250565b3360009081526003602052604090205460ff166104e1576040805162461bcd60e51b815260206004820152601760248201527f4e6f7420617574686f72697a65642061732073746f7265000000000000000000604482015290519081900360640190fd5b600081815260016020526040902060030154819061010090046001600160a01b0316331461054f576040805162461bcd60e51b81526020600482015260166024820152752737ba103a34329031bab93932b73a103437b63232b960511b604482015290519081900360640190fd5b600360008381526001602052604090206003015460ff16600481111561057157fe5b146105c3576040805162461bcd60e51b815260206004820152601c60248201527f4261746368206d75737420626520696e2053746f726520737461676500000000604482015290519081900360640190fd5b600082815260016020908152604091829020600301805460ff191660041790558151848152915133927fd12e87d39efcabebb12f6540fdd3600b2359cd34e3fb3809747213eef503b4a592908290030190a25050565b600060608060008060008060008061062f610fd5565b60008b8152600160208181526040928390208351610120810185528154815281840180548651600296821615610100026000190190911695909504601f810185900485028601850190965285855290949193858401939092908301828280156106d95780601f106106ae576101008083540402835291602001916106d9565b820191906000526020600020905b8154815290600101906020018083116106bc57829003601f168201915b5050509183525050600282810180546040805160206001841615610100026000190190931694909404601f8101839004830285018301909152808452938101939083018282801561076b5780601f106107405761010080835404028352916020019161076b565b820191906000526020600020905b81548152906001019060200180831161074e57829003601f168201915b5050509183525050600382015460209091019060ff16600481111561078c57fe5b600481111561079757fe5b81526020016003820160019054906101000a90046001600160a01b03166001600160a01b03166001600160a01b03168152602001600482015481526020016005820160009054906101000a900460ff16151515158152602001600682015481526020016007820160009054906101000a90046001600160a01b03166001600160a01b03166001600160a01b0316815250509050806000015181602001518260400151836060015184608001518560a001518660c001518760e00151886101000151879750869650995099509950995099509950995099509950509193959799909294969850565b60036020526000908152604090205460ff1681565b6000805460010190819055604080516101208101825291825280516020601f8901819004810282018101909252878152818301918990899081908401838280828437600092019190915250505090825250604080516020601f880181900481028201810190925286815291810191908790879081908401838280828437600092018290525093855250505060208083018290523360408085018290526060850188905260016080860181905260a0860188905260c09095019190915282548352838252909120835181558382015180519193610975939085019291019061102c565b506040820151805161099191600284019160209091019061102c565b50606082015160038201805460ff191660018360048111156109af57fe5b0217905550608082810151600383018054610100600160a81b0319166101006001600160a01b0393841681029190911790915560a0850151600485015560c085015160058501805460ff191691151591909117905560e0850151600685015590930151600790920180546001600160a01b0319169290931691909117909155600054604080518281526060602082018181529082018a905233947f5332f073d755f0f24af075eecaaafa79a4bc04c2bb93b0c3b0e6b841a8542dc294938c938c938c938c938301908301878780828437600083820152601f01601f191690910184810383528581526020019050858580828437600083820152604051601f909101601f1916909201829003995090975050505050505050a2505050505050565b600082815260016020526040902060030154829061010090046001600160a01b03163314610b3d576040805162461bcd60e51b81526020600482015260166024820152752737ba103a34329031bab93932b73a103437b63232b960511b604482015290519081900360640190fd5b600083815260016020908152604091829020600501805460ff191685151590811790915582518681529182015281517fd65b27ba2911fcbdf7a7f729333d39269502e6afd9c5ae60a98bf87d0be3b675929181900390910190a1505050565b60026020526000908152604090205460ff1681565b600160208181526000928352604092839020805481840180548651600296821615610100026000190190911695909504601f81018590048502860185019096528585529094919392909190830182828015610c4d5780601f10610c2257610100808354040283529160200191610c4d565b820191906000526020600020905b815481529060010190602001808311610c3057829003601f168201915b50505060028085018054604080516020601f6000196101006001871615020190941695909504928301859004850281018501909152818152959695945090925090830182828015610cdf5780601f10610cb457610100808354040283529160200191610cdf565b820191906000526020600020905b815481529060010190602001808311610cc257829003601f168201915b505050506003830154600484015460058501546006860154600790960154949560ff808516966001600160a01b0361010090960486169650939492169290911689565b6001600160a01b038116600081815260036020526040808220805460ff19166001179055517fa7de06aa60b69f67f419b34647ad6da74e5177ecca58e49f670e63e078786ae79190a250565b600082815260016020526040902060030154829061010090046001600160a01b03163314610ddc576040805162461bcd60e51b81526020600482015260166024820152752737ba103a34329031bab93932b73a103437b63232b960511b604482015290519081900360640190fd5b60008381526001602052604090206004600382015460ff166004811115610dff57fe5b1415610e41576040805162461bcd60e51b815260206004820152600c60248201526b105b1c9958591e481cdbdb1960a21b604482015290519081900360640190fd5b6001600160a01b03831660009081526003602052604090205460ff1615610e7b576003818101805460ff19166001835b0217905550610f52565b6001600160a01b03831660009081526002602052604090205460ff1615610eb2576003810180546002919060ff1916600183610e71565b6000600382015460ff166004811115610ec757fe5b1415610ee2576003810180546001919060ff19168280610e71565b6001600382015460ff166004811115610ef757fe5b1415610f13576003810180546002919060ff1916600183610e71565b6002600382015460ff166004811115610f2857fe5b1415610f41576003818101805460ff1916600183610e71565b6003818101805460ff191690911790555b600381018054610100600160a81b0319166101006001600160a01b038616908102919091179182905560405186815290917f20f13d5051a99e5a3e1fe067b2dad576cc3253d70a33e0c746becebd65d4baa491879160ff169060208101826004811115610fbb57fe5b60ff1681526020019250505060405180910390a250505050565b6040518061012001604052806000815260200160608152602001606081526020016000600481111561100357fe5b815260006020820181905260408201819052606082018190526080820181905260a09091015290565b828054600181600116156101000203166002900490600052602060002090601f016020900481019282601f1061106d57805160ff191683800117855561109a565b8280016001018555821561109a579182015b8281111561109a57825182559160200191906001019061107f565b506110a69291506110aa565b5090565b6110c491905b808211156110a657600081556001016110b0565b9056fea265627a7a72315820fb4b4bb2d21ef4fdc5d18e30c75995ede648b8795cc83d661a25c5629116cead64736f6c63430005100032",
  "source": "// SPDX-License-Identifier: MIT\npragma solidity ^0.5.16;\n\n/**\n * @title FoodSupplyChain\n * @notice A simple supply chain tracking system for study/demo purposes\n */\ncontract FoodSupplyChain {\n    enum Stage {\n        Created,\n        Transported,\n        Warehoused,\n        Store,\n        Sold\n    }\n\n    struct Batch {\n        // a batch of food item includes name, origin, stage, current holder, expiry date, condition, batch size, and creator\n        uint id; // id of the batch\n        string name;\n        string origin; // origin of the batch\n        Stage stage; // stage of the batch (Created, Transported, Warehoused, Store, Sold)\n        address currentHolder; // current holder of the batch\n        uint expiryDate; // expiry date of the batch\n        bool conditionOk; // condition of the batch (true if the batch is ok, false if the batch is not ok)\n        uint batchSize; // number of boxes in the batch\n        address creator; // address of the batch creator\n    }\n\n    uint public batchCount; // count of the batches this is set to public so that it can be accessed by the frontend\n    mapping(uint => Batch) public batches; // mapping of the batches this is set to public so that it can be accessed by the frontend\n\n    // Role-based access control\n    mapping(address => bool) public warehouses; // addresses authorized as warehouses\n    mapping(address => bool) public stores; // addresses authorized as stores\n\n    event BatchCreated(\n        uint id,\n        string name,\n        string origin,\n        address indexed creator\n    ); // event for the creation of a new batch\n    event StageUpdated(uint id, Stage newStage, address indexed holder); // event for the update of the stage of a batch\n    event ConditionUpdated(uint id, bool conditionOk); // event for the update of the condition of a batch\n    event BatchSold(uint id, address indexed store); // event for when a batch is marked as sold\n    event WarehouseAuthorized(address indexed warehouse); // event for warehouse authorization\n    event StoreAuthorized(address indexed store); // event for store authorization\n\n    modifier onlyHolder(uint _id) {\n        // modifier for the only holder of a batch\n        require(\n            msg.sender == batches[_id].currentHolder,\n            \"Not the current holder\"\n        );\n        _;\n    }\n\n    modifier onlyWarehouse() {\n        // modifier for warehouse operations\n        require(warehouses[msg.sender], \"Not authorized as warehouse\");\n        _;\n    }\n\n    modifier onlyStore() {\n        // modifier for store operations\n        require(stores[msg.sender], \"Not authorized as store\");\n        _;\n    }\n\n    /// Create a new food batch\n    function createBatch(\n        string calldata _name, // name of the food batch\n        string calldata _origin, // origin of the food batch\n        uint _expiryDate, // expiry date of the food batch\n        uint _batchSize // number of boxes in the batch\n    ) external {\n        // function to create a new food batch\n        batchCount++;\n        batches[batchCount] = Batch(\n            batchCount, // id of the batch\n            _name,\n            _origin,\n            Stage.Created, // stage of the batch\n            msg.sender, // current holder of the batch\n            _expiryDate, // expiry date of the batch\n            true, // condition of the batch\n            _batchSize, // number of boxes in the batch\n            msg.sender // creator of the batch\n        );\n        emit BatchCreated(batchCount, _name, _origin, msg.sender);\n    }\n\n    /// Move batch to next stage\n    function advanceStage(\n        uint _id,\n        address _newHolder\n    ) external onlyHolder(_id) {\n        // function to move the batch to the next stage\n        Batch storage b = batches[_id]; // storage of the batch\n        require(b.stage != Stage.Sold, \"Already sold\");\n\n        // Role-aware stage transition:\n        // - If transferring to a store → set stage to Store\n        // - Else if transferring to a warehouse → set stage to Warehoused\n        // - Else increment one stage forward (up to Store)\n        if (stores[_newHolder]) {\n            b.stage = Stage.Store;\n        } else if (warehouses[_newHolder]) {\n            b.stage = Stage.Warehoused;\n        } else {\n            // Increment by one stage but do not pass Sold here\n            if (b.stage == Stage.Created) {\n                b.stage = Stage.Transported;\n            } else if (b.stage == Stage.Transported) {\n                b.stage = Stage.Warehoused;\n            } else if (b.stage == Stage.Warehoused) {\n                b.stage = Stage.Store;\n            } else {\n                // If already at Store, keep Store until marked as Sold by store\n                b.stage = Stage.Store;\n            }\n        }\n\n        b.currentHolder = _newHolder; // update the current holder of the batch\n        emit StageUpdated(_id, b.stage, _newHolder);\n    }\n\n    /// Update condition status (temperature/quality)\n    function updateCondition(uint _id, bool _ok) external onlyHolder(_id) {\n        // function to update the condition of a batch\n        batches[_id].conditionOk = _ok; // update the condition of the batch\n        emit ConditionUpdated(_id, _ok); // emit the event for the update of the condition of the batch\n    }\n\n    /// Get details (helper for frontend)\n    function getBatch(\n        uint _id\n    )\n        external\n        view\n        returns (\n            uint id, // id of the batch\n            string memory name, // name of the batch\n            string memory origin,\n            Stage stage, // stage of the batch\n            address holder, // current holder of the batch\n            uint expiryDate, // expiry date of the batch\n            bool conditionOk, // condition of the batch\n            uint batchSize, // number of boxes in the batch\n            address creator // creator of the batch\n        )\n    {\n        Batch memory b = batches[_id]; // memory of the batch\n        return (\n            b.id,\n            b.name,\n            b.origin,\n            b.stage,\n            b.currentHolder,\n            b.expiryDate,\n            b.conditionOk,\n            b.batchSize,\n            b.creator\n        ); // return the details of the batch\n    }\n\n    /// Authorize a warehouse address\n    function authorizeWarehouse(address _warehouse) external {\n        warehouses[_warehouse] = true;\n        emit WarehouseAuthorized(_warehouse);\n    }\n\n    /// Authorize a store address\n    function authorizeStore(address _store) external {\n        stores[_store] = true;\n        emit StoreAuthorized(_store);\n    }\n\n    /// Mark batch as sold (only stores can do this)\n    function markAsSold(uint _id) external onlyStore onlyHolder(_id) {\n        require(\n            batches[_id].stage == Stage.Store,\n            \"Batch must be in Store stage\"\n        );\n        batches[_id].stage = Stage.Sold;\n        emit BatchSold(_id, msg.sender);\n    }\n}\n",
  "sourcePath": "/Users/trucpham/Desktop/Deakin 2025/Term 2/Blockchain technologies/10.2HD/contracts/FoodSupplyChain.sol",
  "compiler": {
    "name": "solc",
    "version": "0.5.16+commit.9c3226ce.Emscripten.clang"
  },
  "schemaVersion": "3.4.16",
  "updatedAt": "2025-09-19T12:20:44.970Z",
  "networkType": "ethereum",
  "devdoc": {
    "methods": {},
    "title": "FoodSupplyChain"
  },
  "userdoc": {
    "methods": {
      "advanceStage(uint256,address)": {
        "notice": "Move batch to next stage"
      },
      "authorizeStore(address)": {
        "notice": "Authorize a store address"
      },
      "authorizeWarehouse(address)": {
        "notice": "Authorize a warehouse address"
      },
      "createBatch(string,string,uint256,uint256)": {
        "notice": "Create a new food batch"
      },
      "getBatch(uint256)": {
        "notice": "Get details (helper for frontend)"
      },
      "markAsSold(uint256)": {
        "notice": "Mark batch as sold (only stores can do this)"
      },
      "updateCondition(uint256,bool)": {
        "notice": "Update condition status (temperature/quality)"
      }
    },
    "notice": "A simple supply chain tracking system for study/demo purposes"
  }
}