{
  "contractName": "TodoList",
  "abi": [
    {
      "inputs": [],
      "payable": false,
      "stateMutability": "nonpayable",
      "type": "constructor"
    },
    {
      "anonymous": false,
      "inputs": [
        {
          "indexed": false,
          "internalType": "uint256",
          "name": "id",
          "type": "uint256"
        },
        {
          "indexed": false,
          "internalType": "address",
          "name": "assignedTo",
          "type": "address"
        }
      ],
      "name": "TaskAssigned",
      "type": "event"
    },
    {
      "anonymous": false,
      "inputs": [
        {
          "indexed": false,
          "internalType": "uint256",
          "name": "id",
          "type": "uint256"
        },
        {
          "indexed": false,
          "internalType": "string",
          "name": "category",
          "type": "string"
        }
      ],
      "name": "TaskCategorySet",
      "type": "event"
    },
    {
      "anonymous": false,
      "inputs": [
        {
          "indexed": false,
          "internalType": "uint256",
          "name": "id",
          "type": "uint256"
        },
        {
          "indexed": false,
          "internalType": "bool",
          "name": "completed",
          "type": "bool"
        }
      ],
      "name": "TaskCompleted",
      "type": "event"
    },
    {
      "anonymous": false,
      "inputs": [
        {
          "indexed": false,
          "internalType": "uint256",
          "name": "id",
          "type": "uint256"
        },
        {
          "indexed": false,
          "internalType": "string",
          "name": "content",
          "type": "string"
        },
        {
          "indexed": false,
          "internalType": "bool",
          "name": "completed",
          "type": "bool"
        },
        {
          "indexed": false,
          "internalType": "bool",
          "name": "important",
          "type": "bool"
        },
        {
          "indexed": false,
          "internalType": "uint256",
          "name": "deadline",
          "type": "uint256"
        },
        {
          "indexed": false,
          "internalType": "string",
          "name": "category",
          "type": "string"
        },
        {
          "indexed": false,
          "internalType": "address[]",
          "name": "assignedTo",
          "type": "address[]"
        }
      ],
      "name": "TaskCreated",
      "type": "event"
    },
    {
      "anonymous": false,
      "inputs": [
        {
          "indexed": false,
          "internalType": "uint256",
          "name": "id",
          "type": "uint256"
        },
        {
          "indexed": false,
          "internalType": "uint256",
          "name": "deadline",
          "type": "uint256"
        }
      ],
      "name": "TaskDeadlineSet",
      "type": "event"
    },
    {
      "anonymous": false,
      "inputs": [
        {
          "indexed": false,
          "internalType": "uint256",
          "name": "id",
          "type": "uint256"
        },
        {
          "indexed": false,
          "internalType": "bool",
          "name": "important",
          "type": "bool"
        }
      ],
      "name": "TaskMarkedImportant",
      "type": "event"
    },
    {
      "constant": true,
      "inputs": [],
      "name": "taskCount",
      "outputs": [
        {
          "internalType": "uint256",
          "name": "",
          "type": "uint256"
        }
      ],
      "payable": false,
      "stateMutability": "view",
      "type": "function"
    },
    {
      "constant": true,
      "inputs": [
        {
          "internalType": "uint256",
          "name": "",
          "type": "uint256"
        }
      ],
      "name": "tasks",
      "outputs": [
        {
          "internalType": "uint256",
          "name": "id",
          "type": "uint256"
        },
        {
          "internalType": "string",
          "name": "content",
          "type": "string"
        },
        {
          "internalType": "bool",
          "name": "completed",
          "type": "bool"
        },
        {
          "internalType": "bool",
          "name": "important",
          "type": "bool"
        },
        {
          "internalType": "uint256",
          "name": "deadline",
          "type": "uint256"
        },
        {
          "internalType": "string",
          "name": "category",
          "type": "string"
        }
      ],
      "payable": false,
      "stateMutability": "view",
      "type": "function"
    },
    {
      "constant": false,
      "inputs": [
        {
          "internalType": "string",
          "name": "_content",
          "type": "string"
        },
        {
          "internalType": "bool",
          "name": "_important",
          "type": "bool"
        },
        {
          "internalType": "uint256",
          "name": "_deadline",
          "type": "uint256"
        },
        {
          "internalType": "string",
          "name": "_category",
          "type": "string"
        },
        {
          "internalType": "address[]",
          "name": "_assignedTo",
          "type": "address[]"
        }
      ],
      "name": "createTask",
      "outputs": [],
      "payable": false,
      "stateMutability": "nonpayable",
      "type": "function"
    },
    {
      "constant": false,
      "inputs": [
        {
          "internalType": "uint256",
          "name": "_id",
          "type": "uint256"
        }
      ],
      "name": "toggleCompleted",
      "outputs": [],
      "payable": false,
      "stateMutability": "nonpayable",
      "type": "function"
    },
    {
      "constant": false,
      "inputs": [
        {
          "internalType": "uint256",
          "name": "_id",
          "type": "uint256"
        }
      ],
      "name": "toggleImportant",
      "outputs": [],
      "payable": false,
      "stateMutability": "nonpayable",
      "type": "function"
    },
    {
      "constant": true,
      "inputs": [
        {
          "internalType": "uint256",
          "name": "id",
          "type": "uint256"
        }
      ],
      "name": "getAssigneesLength",
      "outputs": [
        {
          "internalType": "uint256",
          "name": "",
          "type": "uint256"
        }
      ],
      "payable": false,
      "stateMutability": "view",
      "type": "function"
    },
    {
      "constant": true,
      "inputs": [
        {
          "internalType": "uint256",
          "name": "id",
          "type": "uint256"
        },
        {
          "internalType": "uint256",
          "name": "idx",
          "type": "uint256"
        }
      ],
      "name": "getAssignee",
      "outputs": [
        {
          "internalType": "address",
          "name": "",
          "type": "address"
        }
      ],
      "payable": false,
      "stateMutability": "view",
      "type": "function"
    }
  ],
  "bytecode": "0x6080604052600080553480156200001557600080fd5b506040805160018082528183019092526060916020808301908038833901905050905033816000815181106200004757fe5b60200260200101906001600160a01b031690816001600160a01b031681525050620000ce6040518060400160405280601c81526020017f436865636b206f75742064617070756e69766572736974792e636f6d0000000081525060008060405180604001604052806004815260200163576f726b60e01b81525085620000d560201b60201c565b506200046a565b6000805460019081018083556040805160e08101825282815260208082018b81528284018790528a15156060840152608083018a905260a0830189905260c083018890529386528481529190942084518155915180519293620001419390850192919091019062000338565b506040820151600282018054606085015115156101000261ff001993151560ff1990921691909117929092169190911790556080820151600382015560a082015180516200019a91600484019160209091019062000338565b5060c08201518051620001b8916005840191602090910190620003bd565b509050507fd5d737acb9c8199a8984e1206bde6664e9501acb313cdd2d01a1735c296a25c86000548660008787878760405180888152602001806020018715151515815260200186151515158152602001858152602001806020018060200184810384528a818151815260200191508051906020019080838360005b838110156200024e57818101518382015260200162000234565b50505050905090810190601f1680156200027c5780820380516001836020036101000a031916815260200191505b50848103835286518152865160209182019188019080838360005b83811015620002b157818101518382015260200162000297565b50505050905090810190601f168015620002df5780820380516001836020036101000a031916815260200191505b508481038252855181528551602091820191808801910280838360005b8381101562000316578181015183820152602001620002fc565b505050509050019a505050505050505050505060405180910390a15050505050565b828054600181600116156101000203166002900490600052602060002090601f016020900481019282601f106200037b57805160ff1916838001178555620003ab565b82800160010185558215620003ab579182015b82811115620003ab5782518255916020019190600101906200038e565b50620003b992915062000423565b5090565b82805482825590600052602060002090810192821562000415579160200282015b828111156200041557825182546001600160a01b0319166001600160a01b03909116178255602090920191600190910190620003de565b50620003b992915062000443565b6200044091905b80821115620003b957600081556001016200042a565b90565b6200044091905b80821115620003b95780546001600160a01b03191681556001016200044a565b610f4b806200047a6000396000f3fe608060405234801561001057600080fd5b506004361061007d5760003560e01c8063455f50241161005b578063455f5024146102b15780638d977672146102ce578063b42cbbc2146103ed578063b6cb58a51461040a5761007d565b806320864da21461008257806329924b47146102435780633d71e56e14610272575b600080fd5b610241600480360360a081101561009857600080fd5b8101906020810181356401000000008111156100b357600080fd5b8201836020820111156100c557600080fd5b803590602001918460018302840111640100000000831117156100e757600080fd5b91908080601f0160208091040260200160405190810160405280939291908181526020018383808284376000920191909152509295843515159560208601359591945092506060810191506040013564010000000081111561014857600080fd5b82018360208201111561015a57600080fd5b8035906020019184600183028401116401000000008311171561017c57600080fd5b91908080601f01602080910402602001604051908101604052809392919081815260200183838082843760009201919091525092959493602081019350359150506401000000008111156101cf57600080fd5b8201836020820111156101e157600080fd5b8035906020019184602083028401116401000000008311171561020357600080fd5b919080806020026020016040519081016040528093929190818152602001838360200280828437600092019190915250929550610412945050505050565b005b6102606004803603602081101561025957600080fd5b5035610667565b60408051918252519081900360200190f35b6102956004803603604081101561028857600080fd5b508035906020013561067c565b604080516001600160a01b039092168252519081900360200190f35b610241600480360360208110156102c757600080fd5b50356106b5565b6102eb600480360360208110156102e457600080fd5b503561098a565b6040518087815260200180602001861515151581526020018515151515815260200184815260200180602001838103835288818151815260200191508051906020019080838360005b8381101561034c578181015183820152602001610334565b50505050905090810190601f1680156103795780820380516001836020036101000a031916815260200191505b50838103825284518152845160209182019186019080838360005b838110156103ac578181015183820152602001610394565b50505050905090810190601f1680156103d95780820380516001836020036101000a031916815260200191505b509850505050505050505060405180910390f35b6102416004803603602081101561040357600080fd5b5035610ada565b610260610daf565b6000805460019081018083556040805160e08101825282815260208082018b81528284018790528a15156060840152608083018a905260a0830189905260c08301889052938652848152919094208451815591518051929361047c93908501929190910190610db5565b506040820151600282018054606085015115156101000261ff001993151560ff1990921691909117929092169190911790556080820151600382015560a082015180516104d3916004840191602090910190610db5565b5060c082015180516104ef916005840191602090910190610e33565b509050507fd5d737acb9c8199a8984e1206bde6664e9501acb313cdd2d01a1735c296a25c86000548660008787878760405180888152602001806020018715151515815260200186151515158152602001858152602001806020018060200184810384528a818151815260200191508051906020019080838360005b8381101561058357818101518382015260200161056b565b50505050905090810190601f1680156105b05780820380516001836020036101000a031916815260200191505b50848103835286518152865160209182019188019080838360005b838110156105e35781810151838201526020016105cb565b50505050905090810190601f1680156106105780820380516001836020036101000a031916815260200191505b508481038252855181528551602091820191808801910280838360005b8381101561064557818101518382015260200161062d565b505050509050019a505050505050505050505060405180910390a15050505050565b60009081526001602052604090206005015490565b600082815260016020526040812060050180548390811061069957fe5b6000918252602090912001546001600160a01b03169392505050565b6106bd610e94565b600082815260016020818152604092839020835160e0810185528154815281840180548651600296821615610100026000190190911695909504601f810185900485028601850190965285855290949193858401939092908301828280156107665780601f1061073b57610100808354040283529160200191610766565b820191906000526020600020905b81548152906001019060200180831161074957829003601f168201915b505050918352505060028281015460ff80821615156020808601919091526101009283900490911615156040808601919091526003860154606086015260048601805482516001821615909502600019011694909404601f81018390048302840183019091528083526080909401939192919083018282801561082a5780601f106107ff5761010080835404028352916020019161082a565b820191906000526020600020905b81548152906001019060200180831161080d57829003601f168201915b505050505081526020016005820180548060200260200160405190810160405280929190818152602001828054801561088c57602002820191906000526020600020905b81546001600160a01b0316815260019091019060200180831161086e575b50505091909252505050604080820180511590526000848152600160208181529290912083518155828401518051949550859491936108d093850192910190610db5565b506040820151600282018054606085015115156101000261ff001993151560ff1990921691909117929092169190911790556080820151600382015560a08201518051610927916004840191602090910190610db5565b5060c08201518051610943916005840191602090910190610e33565b5050506040808201518151848152901515602082015281517fe21fa966ca5cd02748c0752352d18c48165e61cb55b4c29cccf924b5a95fcff1929181900390910190a15050565b600160208181526000928352604092839020805481840180548651600296821615610100026000190190911695909504601f81018590048502860185019096528585529094919392909190830182828015610a265780601f106109fb57610100808354040283529160200191610a26565b820191906000526020600020905b815481529060010190602001808311610a0957829003601f168201915b505050506002838101546003850154600486018054604080516020610100600185161581026000190190941697909704601f8101889004880282018801909252818152979860ff808716999390960490951696509294909290830182828015610ad05780601f10610aa557610100808354040283529160200191610ad0565b820191906000526020600020905b815481529060010190602001808311610ab357829003601f168201915b5050505050905086565b610ae2610e94565b600082815260016020818152604092839020835160e0810185528154815281840180548651600296821615610100026000190190911695909504601f81018590048502860185019096528585529094919385840193909290830182828015610b8b5780601f10610b6057610100808354040283529160200191610b8b565b820191906000526020600020905b815481529060010190602001808311610b6e57829003601f168201915b505050918352505060028281015460ff80821615156020808601919091526101009283900490911615156040808601919091526003860154606086015260048601805482516001821615909502600019011694909404601f810183900483028401830190915280835260809094019391929190830182828015610c4f5780601f10610c2457610100808354040283529160200191610c4f565b820191906000526020600020905b815481529060010190602001808311610c3257829003601f168201915b5050505050815260200160058201805480602002602001604051908101604052809291908181526020018280548015610cb157602002820191906000526020600020905b81546001600160a01b03168152600190910190602001808311610c93575b5050509190925250505060608101805115905260008381526001602081815260409092208351815582840151805194955085949193610cf593850192910190610db5565b506040820151600282018054606085015115156101000261ff001993151560ff1990921691909117929092169190911790556080820151600382015560a08201518051610d4c916004840191602090910190610db5565b5060c08201518051610d68916005840191602090910190610e33565b505050606081015160408051848152911515602083015280517fa3e7e49ba78453c5485023a7edfda40ecbaec1b8218ebf7d71ace817f19d6ca99281900390910190a15050565b60005481565b828054600181600116156101000203166002900490600052602060002090601f016020900481019282601f10610df657805160ff1916838001178555610e23565b82800160010185558215610e23579182015b82811115610e23578251825591602001919060010190610e08565b50610e2f929150610ed5565b5090565b828054828255906000526020600020908101928215610e88579160200282015b82811115610e8857825182546001600160a01b0319166001600160a01b03909116178255602090920191600190910190610e53565b50610e2f929150610ef2565b6040518060e0016040528060008152602001606081526020016000151581526020016000151581526020016000815260200160608152602001606081525090565b610eef91905b80821115610e2f5760008155600101610edb565b90565b610eef91905b80821115610e2f5780546001600160a01b0319168155600101610ef856fea265627a7a72315820be477df73ea4f566e893ec98be338ca5122cb67062a496a8e87504ffbeaceafc64736f6c63430005100032",
  "source": "pragma solidity ^0.5.0;\n\ncontract TodoList {\n    uint public taskCount = 0;\n\n    struct Task {\n        uint id;\n        string content;\n        bool completed;\n        bool important; // new field\n        uint deadline; //UNIX timestamp\n        string category; // 'School', 'Work', 'Personal', 'Other'\n        address[] assignedTo; // array of addresses\n    }\n\n    mapping(uint => Task) public tasks;\n\n    event TaskCreated(\n        uint id,\n        string content,\n        bool completed,\n        bool important,\n        uint deadline,\n        string category,\n        address[] assignedTo\n    ); // updated event\n\n    event TaskCompleted(uint id, bool completed);\n\n    constructor() public {\n        address[] memory self = new address[](1);\n        self[0] = msg.sender;\n        createTask(\"Check out dappuniversity.com\", false, 0, \"Work\", self); //not important, no deadline, no category, assigned to self\n    }\n    event TaskMarkedImportant(uint id, bool important); // new event\n    event TaskAssigned(uint id, address assignedTo); // new event\n    event TaskDeadlineSet(uint id, uint deadline); // new event\n    event TaskCategorySet(uint id, string category); // new event\n\n    function createTask(\n        string memory _content,\n        bool _important,\n        uint _deadline,\n        string memory _category,\n        address[] memory _assignedTo\n    ) public {\n        taskCount++;\n        tasks[taskCount] = Task(\n            taskCount,\n            _content,\n            false,\n            _important,\n            _deadline,\n            _category,\n            _assignedTo\n        ); // add the important level\n        emit TaskCreated(\n            taskCount,\n            _content,\n            false,\n            _important,\n            _deadline,\n            _category,\n            _assignedTo\n        ); // emit the new event\n    }\n\n    function toggleCompleted(uint _id) public {\n        Task memory _task = tasks[_id];\n        _task.completed = !_task.completed;\n        tasks[_id] = _task;\n        emit TaskCompleted(_id, _task.completed);\n    }\n\n    function toggleImportant(uint _id) public {\n        // new function to toggle the important field\n        Task memory _task = tasks[_id];\n        _task.important = !_task.important;\n        tasks[_id] = _task;\n        emit TaskMarkedImportant(_id, _task.important);\n    }\n    function getAssigneesLength(uint id) external view returns (uint) {\n        return tasks[id].assignedTo.length;\n    }\n    function getAssignee(uint id, uint idx) external view returns (address) {\n        return tasks[id].assignedTo[idx];\n    }\n}\n",
  "sourcePath": "/Users/trucpham/Desktop/Deakin 2025/Term 2/Blockchain technologies/5.2D-resources/5.3D/contracts/TodoList.sol",
  "compiler": {
    "name": "solc",
    "version": "0.5.16+commit.9c3226ce.Emscripten.clang"
  },
  "schemaVersion": "3.4.16",
  "updatedAt": "2025-08-19T02:23:47.096Z",
  "networkType": "ethereum",
  "devdoc": {
    "methods": {}
  },
  "userdoc": {
    "methods": {}
  }
}